:020000041FFFDC
:1000000000000000B51EFF1F7045FF1F6E45FF1F5B
:10001000B46AFF1F000000000000000000000000A4
:1000200000000000000000000000000000000000D0
:1000300000000000000000000000000000000000C0
:1000400000000000000000000000000000000000B0
:1000500000000000000000000000000000000000A0
:100060000000000000000000000000000000000090
:100070000000000000000000000000000000000080
:100080000000000000000000000000000000000070
:100090000000000000000000000000000000000060
:1000A0000000000000000000000000000000000050
:1000B0000000000000000000000000000000000040
:1000C0000000000000000000000000000000000030
:1000D0000000000000000000000000000000000020
:1000E0000000000000000000000000000000000010
:1000F0000000000000000000000000000000000000
:1001000000000000000000000000000000000000EF
:1001100000000000000000000000000000000000DF
:1001200000000000000000000000000000000000CF
:1001300000000000000000000000000000000000BF
:1001400000000000000000000000000000000000AF
:10015000000000000000000000000000000000009F
:10016000000000000000000000000000000000008F
:10017000000000000000000000000000000000007F
:10018000000000000000000000000000000000006F
:100190005D2AFF1F8129FF1FDD32FF1F00000000C5
:1001A000000000000000000000000000000000004F
:1001B000000000000000000000000000000000003F
:1001C000000000000000000000000000000000002F
:1001D000000000000000000000000000000000001F
:1001E000000000000000000000000000000000000F
:1001F00000000000000000000000000000000000FF
:1002000000000000000000000000000000000000EE
:1002100000000000000000000000000000000000DE
:1002200000000000000000000000000000000000CE
:1002300000000000000000000000000000000000BE
:1002400000000000000000000000000000000000AE
:10025000000000000000000000000000000000009E
:10026000000000000000000000000000000000008E
:10027000000000000000000000000000000000007E
:10028000000000000000000000000000000000006E
:10029000000000000000000000000000000000005E
:1002A000000000000000000000000000000000004E
:1002B000000000000000000000000000000000003E
:1002C000000000000000000000000000000000002E
:1002D000000000000000000000000000000000001E
:1002E000000000000000000000000000000000000E
:1002F00000000000000000000000000000000000FE
:1003000000000000000000000000000000000000ED
:1003100000000000000000000000000000000000DD
:1003200000000000000000000000000000000000CD
:1003300000000000000000000000000000000000BD
:1003400000000000000000000000000000000000AD
:10035000000000000000000000000000000000009D
:10036000000000000000000000000000000000008D
:100370003133FF1F000000000000000000000000FB
:10038000000000000000000000000000000000006D
:10039000000000000000000000000000000000005D
:1003A000000000000000000000000000C934FF1F32
:1003B000000000000000000000000000000000003D
:1003C000000000000000000000000000000000002D
:1003D000000000000000000000000000000000001D
:1003E000000000000000000000000000000000000D
:020000041FFFDC
:101838000080FF1F3D33FF1F3933FF1F3933FF1F60
:101848000000000000000000000000000000000090
:101858000000000000000000000000003933FF1FF6
:1018680000000000000000003933FF1F3933FF1F5C
:101878003933FF1F3933FF1F3933FF1F3933FF1F38
:101888003933FF1F3933FF1F3933FF1F3933FF1F28
:101898003933FF1F3933FF1F3933FF1F3933FF1F18
:1018A8003933FF1F3933FF1F3933FF1F3933FF1F08
:1018B8003933FF1F3933FF1F3933FF1F3933FF1FF8
:1018C8003933FF1F3933FF1F3933FF1F0000000072
:1018D8000000000000000000000000000000000000
:1018E80000000000000000000000000000000000F0
:1018F8000448054B10B5834203D0044B002B00D09D
:10190800984710BD6064FF1F6064FF1F000000005F
:1019180006480749091A8B10C90FC91810B549108C
:1019280003D0044B002B00D0984710BD6064FF1F04
:101938006064FF1F0000000010B5074C2378002BDF
:1019480009D1FFF7D5FF054B002B02D0044800E072
:1019580000BF0123237010BD6064FF1F000000005A
:101968006446FF1F054B10B5002B03D004490548FA
:1019780000E000BFFFF7CCFF10BDC046000000002C
:101988006464FF1F6446FF1F402292029A1A92461F
:101998007047C046154B002B00D1114B9D46FFF7F1
:1019A800F3FF00218B460F461148124A121A02F023
:1019B8004BFB0C4B002B00D098470B4B002B00D057
:1019C80098470020002104000D000B4802F078FA27
:1019D80002F0A2FA2000290000F010F802F078FACC
:1019E8000000080000000000000000000080FF1F49
:1019F8006064FF1FB46CFF1FF93EFF1F0223F0B5A0
:101A0800434E444F87B03370013B3B7002F098FC63
:101A180001F04AF81D22404B01AD1A7000223F4BDD
:101A28002C001A703E4B05321A703E4B1A32196858
:101A38009143163A0A431A60602219689143403A62
:101A48000A431A6001F0B2F9C120FF21364B800029
:101A58001A588A431A50C522920098588843BF39A9
:101A6800014399509858314908408021C9010143E0
:101A7800802099509958C0050902090A01439950D4
:101A880080212B48C90002F0C3FC142228002949F0
:101A980002F088FA6178207800F0E0FC023406ABA6
:101AA8009C42F7D1244B254A196800241140A022F2
:101AB800D2020A431A608022196892040A431A6003
:101AC80019681F4A01201140802292030A431A60B4
:101AD80000F0A2FF00F0ACFF00F0D0FF3078C0B2F9
:101AE80002F0C6FC3878C0B200F066FA00F0CAFE10
:101AF80014492C706960019800F0C8FB02F02CF9B9
:101B080000F082FE00F0C8F9200007B0F0BDC04622
:101B18004A0AFF1F7C64FF1F480AFF1F490AFF1F6C
:101B2800680AFF1FBCF0004000E100E0FF00FFFF73
:101B38008064FF1FF844FF1F14F00040FF7FF8FF88
:101B4800FFFF9FFF3B000108054B10B51B78032BD7
:101B580004D0044B2021187802F042FC10BDC04686
:101B68008068FF1FB06AFF1FF0B5464887B001F0D4
:101B78009DFF02F0ADFB444B186002F041FC0400ED
:101B8800C30703D402F024FC07B0F0BD00223F4B8A
:101B98001A6002F085FC02F0F3FB00280DD13C4BE3
:101BA8001B78002B04D104213A4B187802F018FC5A
:101BB80002F00EFC02F044FCE6E701282FD1344B7A
:101BC8001B78012BF4D1344F344E354D3A00310097
:101BD800280001F007FB334BDB78002B15D1640795
:101BE8000FD40E21304805AB04AA694402F078FBF3
:101BF80033002A0005990498009701F00FFBFFF7BE
:101C0800A3FF244B08211878D0E76405F9D50E21E5
:101C180005AB04AA6944244802F01AFCE8E7022844
:101C2800C6D11B4B1B78022BC2D11B4F1B4E1C4D20
:101C38003A003100280001F0D5FA1A4BDB78002B66
:101C480015D164070FD40E21174805AB04AA6944BF
:101C580002F046FB33002A0005990498009701F02A
:101C6800DDFAFFF771FF0B4B102118789EE764052A
:101C7800F9D50E2105AB04AA69440B4802F0E8FB2C
:101C8800E8E7C0460C45FF1FAC6AFF1F9809FF1F15
:101C98008068FF1FB06AFF1FA568FF1FA668FF1FA7
:101CA800A468FF1F9868FF1FAC69FF1F10B50C20C0
:101CB80000F09AFD044C0C20217800F0E9FC237810
:101CC8005A425341237010BD0060FF1F10B502F047
:101CD8002FFB112210210F2002F05AFB10BD00002B
:101CE80010B504000E4801F0E1FE02F031FB02F0ED
:101CF800CFFB0C4801F0DAFEFFF7E8FF41230A4862
:101D08002100437002F08CFB02F00AFB02F038FB62
:101D1800011E03D00022054801F0C8FE10BDC046D0
:101D28001F45FF1F2445FF1FAC68FF1F2C45FF1FE1
:101D380010B50A4801F0BAFE0222094BFF325A8058
:101D4800084A0E205A60084A1A813F229A72323A8B
:101D58001A70064B1870FFF7C3FF10BD3B45FF1FF5
:101D6800AC68FF1F6200FFFF87590000A868FF1FCB
:101D780070B50B4C657AFFF799FF092D0ED1A17A42
:101D880047290BD1074801F091FE0D220649074863
:101D980002F0E4F8002801D1FFF788FF70BDC046C3
:101DA800AC69FF1F4A45FF1FB669FF1F5545FF1F56
:101DB800084B10B5084A1870084B01211360FF2220
:101DC800074B1A70F5325A60FA3A920002F0F8FAA4
:101DD80010BDC046B06AFF1F9003FF1F711BFF1F95
:101DE8008068FF1FF7B501270C00394216D0264D31
:101DF800264E2B78FF2B0BD100232B70FFF798FF73
:101E080030786A68390002F0DBFA01206040FEBDD4
:101E18001F4801F04BFE14223078F3E702263142C6
:101E280019D0194D194A2B780192FF2B0FD12F7019
:101E38002E7302F04DFA5322164B68619A70019B7B
:101E4800AA681878310002F0BBFA0220DEE7019B8D
:101E580014221878F6E72025294203D0FFF788FFD7
:101E68002800D3E70420014203D0FF22064B1A7052
:101E7800CCE708200142F8D1102308001840194285
:101E8800C5D04B401800C2E78068FF1FB06AFF1F2B
:101E98006345FF1F9868FF1F10B502F009FB01207A
:101EA80002F02EFA02F064FA002010BD10B50220EC
:101EB80002F09EFA044B02220021186002F050FA48
:101EC8000020FFF775FF10BDB46AFF1F1F2807D851
:101ED800012380228340D20591680B4393607047A9
:101EE8003F2808D80123802220388340D205516931
:101EF8000B435361F3E75F28F1D801238022403870
:101F08008340D205116A0B431362E8E71F2807D8FC
:101F1800012280218240C9058B6893438B607047FA
:101F28003F2808D80122802120388240C9054B6902
:101F380093434B61F3E75F28F1D8012280214038B1
:101F48008240C9050B6A93430B62E8E71F2810D843
:101F580080230200DB05153A1968012A06D82022D9
:101F68009143196019680A431A6070470122824038
:101F7800F6E73F2811D880230200DB05353AD968F7
:101F8800032A06D810229143D960D9680A43DA6037
:101F9800EBE7012220388240F5E75F28E5D84223A5
:101FA8008022181A413B8340D205516A99435162F5
:101FB800516A0B435362D8E710B50400012813D1C6
:101FC800A022184992050B685B015B0913430B605B
:101FD800154B164A19681140154A0A431A604022DF
:101FE80019680A431A6010BD0028FCD101000A20B4
:101FF80000F034FA21000B2000F030FAC0220A4B1E
:10200800920019680A4340211A601A688A431A60C4
:10201800B022044912060B685B015B0913430B608D
:10202800E1E7C04614F000401CF000407F00FEFFCE
:1020380080FD010010B502F033FA064A01211300B1
:1020480010CB4942D967044B136002F0F9F920001C
:1020580010BDC04600E100E01000100010B50400FB
:1020680002F01EFA024B1C6002F0EAF910BDC046ED
:1020780000E100E007B502F013FA80220821D2053A
:10208800936A0191002B01D10739916202210C4A10
:1020980011600199481E01900029FAD1033111609D
:1020A800053101910199481E01900029FAD111606A
:1020B800002B02D18022D205936202F0C1F907BD3C
:1020C80000C00040F0B505002026184B87B00493E7
:1020D800049B002B03D11124200007B0F0BD002180
:1020E80002220B0001910091052002F001F9022360
:1020F8000F490A681A42FCD10596059C631E059390
:10210800002CFAD10B4A1368002BFCDA0F276F4416
:102118000121380002F0B4F93B782B42DCD00520CD
:1021280002F086F9049B013B0493D1E7FFFFFF0708
:1021380090C8004000C80040F0B52D4C8DB0237801
:10214800002B4FD1FFF776FF02232A4F03903A68FE
:102158001A42FCD120230593059B5A1E0592002B99
:10216800FAD1254E3368002BFCDA0120FFF7AAFFCD
:10217800011E02D011200DB0F0BD03000322019012
:10218800009007AD9F2002F0B3F80321280002F069
:1021980077F902233A681A42FCD120230693069B5A
:1021A8005A1E0692002BFAD13368002BFCDA012064
:1021B800FFF788FF0028DDD10398FFF74FFFAA78C3
:1021C8006B7811041B020B4329780B4363601300DF
:1021D800113B0A49052B07D801239340A3600B60E4
:1021E800012323700020C6E780231B03F6E7C046BF
:1021F8000460FF1F90C8004000C800409808FF1FF7
:10220800002330B51B4A85B010780093012152682D
:1022180002F05EF9184B194A19489A638022194B43
:10222800D202DA67BFF34F8FBFF36F8FC4218900E3
:102238004258154B80241A4080231B0413434350F3
:10224800642341200393FFF741FE4020FFF73EFE41
:102258000223E4056362039D6B1E0393002DFAD1EC
:1022680003236362FFF706FFA562FFF765FF05B06A
:1022780030BDC0461060FF1F00C80040050001FFC8
:1022880000E100E004E100E0FFFF00FF13B56B464A
:10229800064A0090596011CB11C2FFF7B1FF002127
:1022A800034A132000F04CFB002016BD1060FF1FEE
:1022B8000922FF1FF0B5040085B003920291FFF7D1
:1022C800B9FE882263035B0B52051A438023DB05A2
:1022D8009D6A8023274F0092BA68002601901B034D
:1022E8009A420CD9F82326001B041E401C4206D033
:1022F8008022214B52025E6219680A431A60002D3F
:102308000BD102F0CDF802221C4B1A608023DB05AA
:102318005A62013A9A6202F093F80023039A9342B0
:1023280020D1002D0AD102F0BBF8144B03221D6006
:102338008023DB055A629D6202F082F88023BA6826
:102348001B039A4208D9002E06D000220A4B0C49DA
:102358005A621A680A401A600198FFF77FFE002047
:1023680005B0F0BD009A0299D2181278CA54013308
:10237800D4E7C0460460FF1F00C8004000C000400A
:10238800FFFFFEFF0C2343430A4A10B59B185A6807
:10239800002A09D0012901D1904710BD9B68002B64
:1023A800FBD000219847F8E79B68002BF5D000295F
:1023B800F3D1F6E7D06AFF1F10B5162813D801230A
:1023C8008340094A946B1C439463506B9843506351
:1023D800D46B20009843012901D120001843D06311
:1023E800116B0B43136310BD00800040064B0121A5
:1023F8005A68C2400A4204D01B68C340180008400B
:1024080070471B6DF9E7C046008000400122064B6B
:102418008240002903D0D9680A43DA607047D96836
:102428009143D960FAE7C0460038004070B50C0007
:10243800FF2810D003223F250240D2009540944047
:10244800054983089B005B181968A9432143196053
:102458000121FFF7DBFF70BD1838004030B50324B9
:1024680044430F4BE25C1B199C785D7801232D1BBC
:102478000135AB40013BA340A140DB430C001228CF
:1024880007D8084992005218116819402143116071
:1024980030BD054A11680B4023431360F8E7C04676
:1024A800A245FF1F08F0004014F00040C21F70B59D
:1024B800D4B20623092C0BD80125084C95400029D5
:1024C80008D00021FFF7CAFF23682B4323600023AD
:1024D800180070BD2368AB43F8E7C04600380040D9
:1024E800214BF0B51B185B78022B21D10324444300
:1024F8001E4A1F4EA35C12199478012215008540CC
:10250800B76B013CE4B23D43A240B563194C1228B5
:1025180015D89B0000290CD117495B1899680A4304
:102528009A600123205C154A834011680B431360AD
:10253800F0BD11495B18996891439960F1E70E4B1A
:1025480000290DD159690A435A61225C1328E8D041
:102558000123203A93400A49086803430B60E7E7E0
:10256800596991435961F0E7B86AFF1FA245FF1FF7
:1025780000800040E745FF1F00F00040A0F0004049
:10258800A4F00040F7B500241C4D1D4A2E001D4B39
:10259800911C1B5D671C0C360191012B1CD101217C
:1025A800143C5156E4B28B40022C09D816494A69AA
:1025B80013434B613C003500019A172FE6D1F7BD54
:1025C8001278114952B29200521891683C000B439C
:1025D80093603500019AD9E7022BEBD1E4B22000D1
:1025E800FFF704FF01235840C1B22000FFF778FF2E
:1025F8002000FFF7FBFE6876DCE7C046B86AFF1FDD
:102608007445FF1FB96AFF1F00F00040012202381D
:102618008240054B002903D059690A435A61704723
:10262800596991435961FAE700380040F8B5040048
:102638000D1E05D1134B1B185B780720012B18D0F2
:1026480001210F00A740104AFE43D368BB43D36063
:10265800A31E8B4202D82000FFF7D8FF00212000DC
:10266800FFF724FF094B5A68012D03D13A435A60FA
:102678000020F8BD164002225E60024B1B195A70FA
:10268800F6E7C046B86AFF1F0038004000800040E7
:10269800012210B58240074B002906D019680A4369
:1026A8001A600121FFF7C2FF10BD19689143196034
:1026B800F7E7C04600800040F8B50C244443134BAC
:1026C8000500E4186368002B03D1A3681220002BCF
:1026D8001AD0022201270E4B00215B195A702800DC
:1026E8002770FFF7A3FF63681E1E08D0A3683E008B
:1026F800002B04D02800FFF779FE4640F6B22800E8
:102708003100FFF759FE0020F8BDC046D06AFF1F10
:10271800B86AFF1FC420FF222E4BF0B5800019585D
:1027280085B091437F3A0A431A50802252021A60B8
:102738000024294F294DA31E012B03D80121E0B203
:10274800FFF764FF264B1E5D631C02933B000C33AE
:102758000393012E13D1E3B218000193FFF746FE4D
:1027680001000198FFF794FFE3B2143B022B1ED837
:10277800012169561B4A8E405369B34353613B7E1E
:10278800002B0DD0E4B22000FFF796FF2000FFF7E2
:102798002DFE7B7E0100834202D02000FFF7F2FD70
:1027A800029C039F0235172CC5D105B0F0BD01214D
:1027B80000236956EB568E400A4A9B009B189A687C
:1027C800B2439A603B7E002BDCD1029C039F02350A
:1027D800B1E7C04600E100E0B86AFF1F7445FF1F7B
:1027E800B96AFF1F00F00040064B06221B185978F3
:1027F80010B5022904D001215970FFF717FF0022F4
:10280800100010BDB86AFF1F70B5134D07202C7853
:10281800002C1FD1962221002800520001F014FC40
:102828000123C420FF222B700C4B80001C635C63C7
:102838000B4B1C605C600B4B195891437F3A0A4361
:102848001A50802252021A600D20074A074900F0E8
:1028580077F8200070BDC046B86AFF1F00800040AE
:10286800A0F0004000E100E01D27FF1F8D25FF1F9D
:10287800762210B5024BDA6001F04AFD10BDC04661
:10288800002000407822002110B5074801F0DCFB49
:1028980001F016FD054B1B78DB0702D5044B054AF2
:1028A8001360002010BDC046F06BFF1F00200040E1
:1028B8007928FF1FF000FF1F70B5040001F0F0FD3C
:1028C80000230C200B4A010059438D18515C002944
:1028D8000DD0A14208D1012300246B7001F0C0FD86
:1028E80001F0AEFD200070BD01330A2BEBD112249C
:1028F800F6E7C046F06BFF1F70B5040001F0D0FD8D
:10290800002319001D000D4A1078002806D0A042A7
:102918000CD1557001310C320A29F5D1002B0AD19E
:1029280001F0CEFC01F08CFD002070BD5078461EF1
:10293800B0411B18EEE701F093FDF3E7F06BFF1FC2
:10294800F0B504000C20002384460A4D67465F4317
:10295800E85D7E19A0420BD0002804D170707C5528
:102968007160B260F0BD01330A2BEFD10320F9E7A3
:102978000720F7E7F06BFF1F80211E4BC9051B6876
:1029880070B58B601C4BC1241A680123FF201343C8
:102998004B611A4BA4001A68194B00251A60194B91
:1029A8001A68194B1A60194B1A5982431A51C522D1
:1029B80092009C588443BF38204398509C58144830
:1029C80004408020C001204398509858114C0002C0
:1029D800000A014399502378002B09D0A368002BE3
:1029E80000D0984701350C340A2DF4D1002070BD71
:1029F8001220FCE71C60FF1F1860FF1FB0F00040AA
:102A0800E86BFF1FB4F00040E46BFF1F00E100E03B
:102A1800FF00FFFFF06BFF1F030000201F2B01D9F1
:102A280003000630014A13607047C046EC6BFF1F75
:102A38000549064B0A681B6805485B0402401343B6
:102A480000200B607047C0461CF00040EC6BFF1F75
:102A5800FFFFC1FF70B50025FFF7EAFF064C23789A
:102A6800002B07D06368002B00D0984701350C3441
:102A78000A2DF4D1002070BDF06BFF1F07B50422AA
:102A8800074801A9FFF716FC019B013305D18023F4
:102A9800044ADB0411680B43136000200EBDC046D6
:102AA8001C18001114F00040802270B58C4C8D4B1E
:102AB800D200002120001C6001F0C6FA8A4B8B4A24
:102AC80013608B4B1A786E23002A00D01133E3620F
:102AD8000A23884A23651378A363874BE361137835
:102AE800022B00D0C2E010232362844B372163619C
:102AF800C823DB00A361824B3620196008233B26DC
:102B0800804D0F39E06323646164E8677E4D0438C3
:102B1800E8677E4D2E607E4D06362B607D4D296020
:102B28007D4D2E607D4D083E2E607D4D1B3E2860FC
:102B380002257C4803607C4801607C48056042208F
:102B48007B4D28607B4D2E607B4D2B607B4D296033
:102B580005257B490D607B4908607B491830086072
:102B68007A490B603C217A4B1960AF23DB00236064
:102B7800784B23631378022B00D084E0133363600F
:102B88009623FA215B00A360E360C8332361724D8A
:102B9800724B8900A5641960616271497148A1622C
:102BA8007321E0640220E1656D396165A165023138
:102BB8005960606696208000A06661670920002140
:102BC800E066A167684869492067E1671678022EC0
:102BD80069D1674A18361660664A07361660664A2B
:102BE8001560FA25654AAD0015606425644A1560CC
:102BF800644A5F3D1560644A033D1560634AC63503
:102C080015600022624D2A6038259D60614D1A6763
:102C18005D64614D5A67DD619625AD001D625F4DAB
:102C28005F4A5D62F53DFF3D9D621E25D865DD6604
:102C38001866596699649967DA67BE23C021594AAC
:102C48005B00E250584B4900635004316250C42283
:102C58005200A350FA2304325B00A3500432A3505D
:102C680001F02EFB012001F0A3FB70BD1378012BAE
:102C780000D138E71378032B00D134E71378042BFD
:102C880000D032E72FE71378012B01D10F3376E715
:102C98001378032B01D10B3371E71378042B00D081
:102CA8006EE708336BE71678012E05D1304A1336E4
:102CB8001660304A043691E71678032E05D12C4A5F
:102CC8000D3616602B4A033688E71278042A00D09E
:102CD80085E70E26264A1660264A02367EE7C04653
:102CE8000004FF1F686CFF1F0080FF1F8804FF1F80
:102CF8007C64FF1F4A0AFF1F3A07000080C3C9010E
:102D08008C04FF1F0804FF1F0404FF1FBC04FF1FDF
:102D1800C004FF1FC404FF1FCC04FF1FC804FF1F0B
:102D2800D004FF1FD404FF1FD804FF1FE004FF1FB7
:102D3800DC04FF1FE404FF1FE804FF1FEC04FF1F6F
:102D4800F404FF1FF004FF1F9004FF1F9404FF1FEB
:102D58009804FF1F9A02000050C30000FC04FF1FE4
:102D68006A180000280A0000204E0000881300009E
:102D78009C04FF1FA004FF1FA804FF1FF804FF1FE7
:102D8800A404FF1FAC04FF1FB004FF1FB404FF1FFF
:102D9800B804FF1F0040001168100000C4090000BB
:102DA800DC05000040420F001027000010B500F0BD
:102DB8000FF810BD0023034A1360034A1360034A47
:102DC8001360704754F0004040F1004044F1004067
:102DD80010B5FFF7EFFF014B984710BDE1A20000C7
:102DE80080233C4A30B51168DB020B4313603A4834
:102DF8003A4B3B4C1A680178224009060A431A608C
:102E0800384A1968384D14782940A40521431960B7
:102E180060211C68214319600178022908D00178D3
:102E2800012905D01178022902D01178012904D18D
:102E380080211C684900214319600178032902D0C8
:102E48001178032903D18021186801431960C02132
:102E580018680903014319601178244B002934D1FB
:102E680023490978032930D18021186809040143CE
:102E78001960204B204921481960C021204B490086
:102E88001960204B204C03602048046020480160F2
:102E980020490B60204B21491960214B21491960B9
:102EA8001278002A03D1196801320A431A60F822FD
:102EB8001D4B52021B781B0313401C4A13431C4A28
:102EC80013601C4B1C4A1A6030BD19681B4801402E
:102ED800CEE7C04640F000404C0AFF1F44F00040D7
:102EE800FFFFFFFC4B0AFF1FFFFF3FFF8C00034063
:102EF8004A0AFF1FCC000340C00B0020D400034047
:102F0800D00003407A3E6A0700008904D8000340D5
:102F180004010340080103400C01034000808904B8
:102F280080000340CC240000480AFF1F2508000049
:102F3800B8000340DC0003402FFCA601FFFF7FFF21
:102F4800F0B502230600774985B09E430291764B7F
:102F5800764901908C460393754F764A764B774DA8
:102F68007748784C78495BD180363E601668774F51
:102F78003E4080273F033E431660039A1278002A9A
:102F88004AD11F60724B734A1A608022029B520119
:102F98001B789B1862461360019B002B00D08FE0C2
:102FA8006D4B2B60019B03606C4B23606C4B0B607B
:102FB8000321080001F084FA6A4B6B4A1360FF236F
:102FC8006A4A11680B431360694B6A4A1A606A4B74
:102FD8006A4A1A606A4B6B4A1A606B4B6B4A1A60F2
:102FE8006B4B6C4A1A606C4B6C4A1A606C4B6D4A9E
:102FF8001A606D4B6D4A1A606D4B6E4A1A60019BE0
:10300800E022012B00D06DE0236893431A002023AF
:103018001343236005B0F0BD8022D2021A60B1E7E5
:10302800019E042E26D8802676003E601768474EFB
:1030380037408026F60237431760039A1278002A31
:1030480014D11E60424B434A1A608022029B5201EF
:103058001B789B1862461360019B012B4DD1564B80
:103068002B60564B0360CA239B0223E08022920206
:103078001A60E7E7802676003E601768334E3740CF
:103088008026F60237431760039A1278002A13D174
:103098001E602F4B2F4A1A608022029B52011B7818
:1030A8009B1862461360019A454B13432B60454BAE
:1030B80003602A4B23602CE0802292021A60E8E722
:1030C800019B012BCBD0404B2B603C4B0360CA23A8
:1030D8009B0223603D4B0B600221080001F0F0F9D0
:1030E8003B4B6AE7019B022B04D1236893431A00E8
:1030F80040238DE7236893438BE7019A354B1343AD
:103108002B60354A354B1A60CA239B0223602B4B30
:1031180003602E4B0B600221080001F0D1F9304BFF
:103128004BE7C046440AFF1F4B0AFF1F94000340A9
:10313800E0000340D8000340900003400000034033
:1031480048000340400003404C000340FFFFE3FFFA
:10315800B0000340030000010080067800280B003F
:1031680007EE753680660822500003400C000340C5
:1031780054000340A49C5C54580003404C44434210
:103188005C00034041524C4660000340403A342EF4
:103198006400034028007F55680003404F49433DC1
:1031A8006C00034037312B4C7000034046403A34E2
:1031B800740003402E28221C0180063D55555537C2
:1031C80000800642555555000280063DD6BE898EC0
:1031D8008045082200800698545A985004000340FD
:1031E80080550822F0B58027094BBF001C68094BA1
:1031F8001D68A3059B0DDE19BB4202D9064E9B191B
:103208009EB22D0E240E0E8005701470F0BDC046BF
:10321800E4000340E800034000FEFFFF70B580268D
:103228008405A40DB600A519B44202D9044D641949
:10323800A5B21D80049B090E000E1170187070BD98
:1032480000FEFFFF1C49F0B51C4D0F681C4A1D4EBF
:103258001D4B1E4C2F403F281AD18025ED023D43BF
:103268000D6011683140116060211A688A431A6044
:103278008022196821400A43F8211A60144A490239
:10328800136800031B0508401B0D18431060F0BDB0
:10329800A025ED023D430D608021156809013540E8
:1032A80029431160602219689143403A0A431A6021
:1032B8001A682240E0E7C04614F00040FF7FF8FF9C
:1032C800CC000340FFF3FFFFDC0003407FFCFFFF5F
:1032D800B800034000220B4B10B51A700A4B02329B
:1032E8001A70FFF77DFD094B1878C0B2FFF7AAFFE7
:1032F800074C2078C0B2FFF723FE2078C0B201F057
:103308004FF810BD4B0AFF1F4C0AFF1F480AFF1F4A
:10331800490AFF1F034B10B51B68002B00D09847C4
:10332800FEE7C0466C6CFF1F07B501A8FFF7F2FF68
:10333800FEE7000010B500F02DF80E4B0E490022F4
:103348000E48994203D803331A1A920892000C497E
:1033580000F028FE0B4B0C4900220C48994203D878
:1033680003331A1A92089200002100F06DFEFEF74E
:1033780011FBC0466064FF1FFD5FFF1F0060FF1F59
:103388007046FF1FB46CFF1F5D64FF1F6064FF1F62
:10339800FEE70000014B024A1A6070472060FF1FD9
:1033A80040787D01431E5A1E9341184AF0B55B428E
:1033B8001340174D174A40019B182A18127E8BB0EC
:1033C8000191002A1BD01A000832D46F0022E6B2FD
:1033D80006AFE4B294420EDC2818C369002B08D06B
:1033E800019902AA117106AA049202AA167303A8E7
:1033F80098470BB0F0BD1978B9540132EAE71A7D45
:103408001A7806AB01261A70E6E7C04600B0FFFF3F
:10341800706CFF1F00900040F0B5254B0400400180
:10342800C25C85B0002A2BD01A18117E002927D03B
:10343800917E002924D01179022921D11689D788B3
:10344800D168F51BADB22A1C102D00D9102292B2FA
:10345800BE4217D11818012303710023C269C38023
:1034680003819A4206D068460321037301710293CF
:1034780001A890470820002C00D01920FFF73CFA3B
:1034880005B0F0BD013C651EAC410A4D64422C40BC
:10349800094D1B186419094D0633013A92B2AA4224
:1034A800EED01888461C1E80085C2070F5E7C046E0
:1034B800706CFF1F00B0FFFF00900040FFFF00008E
:1034C8000F220E4B10B59868104002380A280BD806
:1034D80000F056FC0D0A0B0A0A110A0A0A0A06002D
:1034E80002210020FFF75EFF10BD0121F9E700204F
:1034F800FFF792FFF8E7DB6FF6E7C04600400040B1
:103508000F220E4B10B59868104002380A280BD8C5
:1035180000F036FC0E0A0B0A0A120A0A0A0A06000A
:1035280002210120FFF73EFF10BD01210800F9E745
:103538000120FFF771FFF7E7DB6FF5E70090004028
:10354800F8B50600012828D111221927164C0123A5
:103558009340164AD367BFF34F8FBFF36F8F144D55
:103568007301ED18287C0021FEF750FF687C0021CC
:10357800FEF74CFF00258023380023732571257042
:10358800257325726560FEF7E1FC3800FEF7BEFC86
:10359800AE4206D1074B1E60F8BD0B220827064C29
:1035A800D5E7064B1D60F7E70090004004E100E016
:1035B800706CFF1FAC03FF1F00400040C403FF1FD7
:1035C800F0B587B0050000F08BFF04902800FFF7E6
:1035D800B7FF012D00D07BE00923082719260393A4
:1035E800434CDB190193434B6A019B181A7CFF2A51
:1035F80002D15B7CFF2B69D03000FEF767FC3000FE
:10360800FEF7A4FC3B4B6A0102936B010593029BF6
:1036180002219E18307CFEF721FF0221707CFEF704
:103628001DFF39000027307CFEF700FF707C0399EE
:10363800FEF7FCFE27737169049B18114B08C0182C
:1036480000F0B2FB802327612373030ADBB22371E6
:10365800F37EC0B22070BB4242D01B232373029B6F
:103668006A019B181A7E0123002A3BD08722227206
:10367800636062687F3313436A0194466360029B08
:1036880063449B7E002B03D002236268134363606C
:10369800002D29D1184B194A1360019B184A9B0821
:1036A8009B009B180322019CC0202240FF24D200CB
:1036B800944080001958A1438024944022000A4372
:1036C8001A500123019A93400D4A136007B0F0BDC8
:1036D800052303930633042708260A4C019382E73F
:1036E8000323BBE72272C7E7074B084AD4E7C04663
:1036F80000900040706CFF1FC934FF1FAC03FF1F10
:1037080000E100E0004000400935FF1FC403FF1F2F
:1037180010B50020FFF754FF10BD10B50120FFF7CA
:103728004FFF10BDF0B587B005930CAB1D78174F50
:103738006E01F35D029002AC112003910492002BFC
:103748001ED1637A0C380193002B19D1190020225D
:10375800F01900F079FC0E4BF31807CC07C39C4610
:103768006246236828001360FFF72AFF0123F355F8
:10377800002D07D129000820064AFFF7E1F80020AC
:1037880007B0F0BD1920044A0199F6E7706CFF1FD5
:10379800806CFF1F1937FF1F2337FF1FF0B54E4BF3
:1037A80087B0009343010193009B150042019E18C6
:1037B800B37E04000F00002B55D00620002D1DD02D
:1037C80000291BD033790338002B17D07289954212
:1037D80014D8012B14D033895B1993420EDC00F006
:1037E8005FFE3389F0682A00C018390000F0DAFB60
:1037F8003389EB18338100F023FE002007B0F0BDB9
:103808002A00F06800F0CEFB0023F3800233337106
:10381800F16835812B1C102D00D91023013B0220A3
:103828009BB2012C1DD02D4D6A682D4E824360013C
:1038380084466A60009A624406321088013B471C3D
:103848001780085C9BB22870B342F6D10820002C80
:1038580000D01920FFF730F802236A6813436B6021
:10386800CBE7204DE0E7013C62425441A02203939C
:103878000123D20164421440184A1B48A418E26F7D
:10388800110019401A420FD120221748002D12D1D9
:10389800402215490595237D1342AED1059B581C3E
:1038A80005908B42F7DD04E0039A511C0391824294
:1038B800E5DD0D20A2E70491237D134205D03B7876
:1038C800013DADB223700137E0E7049B5E1C04960E
:1038D8008342F1DDEDE7C046706CFF1F00400040F9
:1038E800FFFF000000900040A086010010B50A000C
:1038F80001000020FFF752FF10BD0000F0B599B09D
:1039080004931E9F674B019103937B0601D5664B79
:103918000393102339001940059101211F4200D05B
:103928008F4330230F4200D1103B06A94B70002172
:103938003C0006AB997020310C4002330294BC075E
:1039480023D5002819DA0D311970029B4042561E02
:10395800002B03D0019B102B50D1D61E00250199B6
:10396800040000F0A7FA039A019B525C07A94A5584
:1039780001359C42F3D2320014E07C0703D52B2199
:103988001970013A01E03C07FAD4029B002B03D0DE
:10399800019B102B37D1023A002839D1302101255B
:1039A80007AB1970049B2E009D4200DA1E001123FC
:1039B800941B1F4207D12700002F2BDCE343DB17A2
:1039C800621E1C40141B06AB981C0378002B02D007
:1039D8000121FFF78BFF029B002B09D0019B082BCD
:1039E80021D106ABD81C302301210370FFF77EFFDD
:1039F800059B2700002B2CD0302739E0019B082B92
:103A0800ACD1320002E0019B082BC5D1013AC3E7D3
:103A18001600A3E706ABD81C202301210370013F41
:103A2800FFF764FFC8E7019B102BE1D106AA2033FA
:103A3800D01C0121D370FFF759FF782306AA012172
:103A4800D370D01CD2E7012106AB5818FFF74EFF00
:103A5800013F002FF7DCE343DB17621E1C40141BF9
:103A6800CAE706ABD81C01210770FFF73FFF013EEC
:103A7800B542F6DB013D04D22025002C0ADC19B042
:103A8800F0BD06ABD81C07ABEB5C01210370FFF758
:103A98002DFFEFE706ABD81C01210570013CFFF7AD
:103AA80025FFEAE7FE45FF1F2346FF1F0FB400214D
:103AB800F0B589B00EAC20CC039107942B78002B7D
:103AC8000AD1002903D0039889B2FFF70FFF09B084
:103AD800F0BC08BC04B01847252B08D0039B002B6A
:103AE80001D1002103952F0001317D1CE6E7002953
:103AF80005D0039889B2FFF7F9FE0023039300224B
:103B08006B786F1C2B2B22D013D8202B21D0232B82
:103B180021D02A2B2DD001256D423B782E2B6BD13D
:103B28007B78791C18003038092860D800230A27C8
:103B38002BE02D2B07D0302B0FD0303B092BEAD8A8
:103B480000250A210FE010233D001A43D8E704237B
:103B5800FAE70823F8E72023F6E70123F4E74D43C3
:103B6800ED180137303D3B78180030380928F6D970
:103B7800D3E7AF1C20CC002DCFDA10236D421A43B7
:103B8800CBE77B431B180131303B08780600303EF9
:103B9800092EF6D9D8430F00C01703403978682991
:103BA80003D0202081434C2900D101373E78782E5C
:103BB80009D8622E26D80021412E96D0582E00D141
:103BC800BCE0252E07D00B2004ABC018252301210B
:103BD8000370FFF78BFE3978002900D1B6E00B207F
:103BE80004ABC01801700121FFF780FE54E02A2BB6
:103BF80005D108CCB91CCDE701235B42CEE70F0005
:103C08000023CBE7300063381528DAD800F0C2F873
:103C18001F009A00D9FFD9FFD9FFD9FF9A00D9FF11
:103C2800D9FFD9FFD9FF440016008A00D9FFD9FF70
:103C38005000D9FFA000D9FFD9FF980008212068BB
:103C4800261D00922A00FFF759FE340024E0D20610
:103C580015D42E0009E0202204ABDA720B2304AA43
:103C68009B1801211800FFF741FE013E002EF2DCEF
:103C780001236A1E002D00DC1D005D1B551908CCB0
:103C880004AAD3720B239B1801211800FFF72EFEFC
:103C98002026013D002D01DC002126E704ABDE7261
:103CA8000B2304AA9B1801211800FFF71FFEF0E759
:103CB800210040C90591002E00D1264E3400F3188A
:103CC8002178002901D09C4215D1A41BD20609D421
:103CD8000495049B9C4210DB00236A1EA54200DB6E
:103CE800631BD5183000A1B2FFF700FE2026AC42B6
:103CF8000FDB059CD0E70134E2E70B2004ABC018CA
:103D0800202301210370FFF7F1FD049B013B04937D
:103D1800DFE70B2004ABC01801210670013DFFF757
:103D2800E5FDE4E7691C02D1012109350A43009247
:103D380010212A0001CCFFF7E1FDADE740210A433D
:103D480010217CE702210A43083178E7013FCCE6DD
:103D58000A2174E74846FF1F30B587B002AA110050
:103D6800064B31CB31C11B680B60002102980091D2
:103D7800049A0399FFF7D6FC07B030BD5046FF1FE1
:103D880002B4714649084900095C49008E4402BCE6
:103D98007047C04603B47146490840004900095EAF
:103DA80049008E4403BC7047002243088B4274D3F9
:103DB80003098B425FD3030A8B4244D3030B8B4224
:103DC80028D3030C8B420DD3FF22090212BA030C2D
:103DD8008B4202D31212090265D0030B8B4219D30E
:103DE80000E0090AC30B8B4201D3CB03C01A52412E
:103DF800830B8B4201D38B03C01A5241430B8B4276
:103E080001D34B03C01A5241030B8B4201D30B035E
:103E1800C01A5241C30A8B4201D3CB02C01A524185
:103E2800830A8B4201D38B02C01A5241430A8B4248
:103E380001D34B02C01A5241030A8B4201D30B0231
:103E4800C01A5241CDD2C3098B4201D3CB01C01A4B
:103E5800524183098B4201D38B01C01A5241430955
:103E68008B4201D34B01C01A524103098B4201D343
:103E78000B01C01A5241C3088B4201D3CB00C01AB0
:103E8800524183088B4201D38B00C01A5241430828
:103E98008B4201D34B00C01A5241411A00D201464D
:103EA800524110467047FFE701B5002000F006F8C0
:103EB80002BDC0460029F7D076E770477047C04674
:103EC80010B5010000230022002000F011F910BDF8
:103ED80010B50021040000F06DF9044B1868C36B9D
:103EE800002B00D098472000FFF752FA6046FF1FCA
:103EF80070B5074C074D641BA41005D0013CA30006
:103F0800EB589847002CF9D100F0D2F970BDC046A3
:103F18006064FF1F5C64FF1F70B50C4E0C4D761B70
:103F2800B61005D0002408CD01349847A642FAD12E
:103F380000F0B8F9074E084D761BB61005D00024DE
:103F480008CD01349847A642FAD170BD5464FF1FCA
:103F58005464FF1F5C64FF1F5464FF1F30B5032ABD
:103F68000CD903000B439B0719D104680B689C42CA
:103F780015D1043A04300431032AF6D8551E002A14
:103F88000BD0002303E05A1C9D4206D01300C25CEC
:103F9800CC5CA242F7D0101B00E0002030BD551EBB
:103FA800EFE7C046F0B5C64600B50F2A41D903244D
:103FB800030026000B431E401C423FD11500103D54
:103FC8002D09A8462D01AC4603000C00844427683F
:103FD8001D001F6067685F60A7689F60E76810340E
:103FE800DF6010336545F2D145460F230C240135B7
:103FF8002D01491913404519144222D08C59AC514E
:1040080004369C1B032CF9D8043B9B0801339B0006
:10401800ED18C91803231A40561E002A06D000239B
:10402800CC5C1A00EC5401339642F9D180BCB846F6
:10403800F0BD0500561E002AF1D1F7E70500561E0F
:10404800EDE71A00F6E7C046F0B50500830749D04A
:10405800541E002A45D003000326CAB202E00135E7
:10406800013C3ED301332A703342F8D1032C30D9B6
:10407800FF250D402A022A43150415430F2C34D975
:104088002700103F3F093E01B4461E001A001036B3
:104098006644156055609560D5601032B242F8D11B
:1040A80001373F01DB190F270C22274022403C0033
:1040B800002A0ED03E1FB608B400A4461A001C1DE4
:1040C800644420C2A242FCD103240136B6009B19E5
:1040D8003C40002C05D0C9B21C19197001339C4210
:1040E800FBD1F0BD03001400C0E72700E2E7C0469B
:1040F800F0B5D6464F4646469846264BC0B506000C
:10410800186891469A460F0000F0C8F8A422224B7E
:1041180052001B689D58002D32D053466C681868B1
:104128001F2C32DC002E0CD1631C0234A4006B60FF
:10413800675100F0B5F80020E0BCBA46B146A84681
:10414800F0BD49468822A300EB189950C4214900C4
:104158008C46AC446146873AA240096891461143AF
:10416800624611608421424649005A50022EDBD132
:1041780029004A468D31FF310B6813430B60D3E7A2
:104188001D004D35FF359D50C7E700F089F8012027
:104198004042D1E75064FF1F6046FF1F034B10B534
:1041A800002B02D00248FFF78BFE10BD0000000074
:1041B800F93EFF1FF0B54E46DE4657464546E0B588
:1041C800344B85B0029018680393894600F066F86E
:1041D800A422314B52001B689E580193002E4ED0EA
:1041E80075686C1E4BD40135AD002B0080339846A2
:1041F800C4235B009B4677190135FF35B044751918
:10420800B34407E004235B429C46043FE044ED18B6
:10421800013C34D34B46002B02D02B684B45F1D1DF
:1042280073683A68013BA34224D000233B60002A0C
:10423800E8D0736859469A460123A3400968194291
:104248000DD19047A422019B52009B587268524599
:1042580001D1B342D6D0002B11D01E00C0E73000E8
:1042680041468D30FF3000680968184204D1029831
:104278009047E7E77460DAE708009047E2E7039BB6
:10428800186800F00DF805B0F0BCBB46B246A94668
:10429800A046F0BD5064FF1F6046FF1F7047C04630
:1042A8007047C046F8B5C046F8BC08BC9E46704783
:1042B800F8B5C046F8BC08BC9E4670470000000030
:1042C80001B40248844601BC604700BFADAE00009F
:1042D80001B40248844601BC604700BFC95C0100C4
:1042E80001B40248844601BC604700BFE90E0100E2
:1042F80001B40248844601BC604700BF496D010013
:1043080001B40248844601BC604700BFA54F0100C4
:1043180001B40248844601BC604700BFD94F010080
:1043280001B40248844601BC604700BFF90C010093
:1043380001B40248844601BC604700BFB9120100BD
:1043480001B40248844601BC604700BFC9A9000007
:1043580001B40248844601BC604700BFB1100100A7
:1043680001B40248844601BC604700BF154D0100F6
:1043780001B40248844601BC604700BF8552010071
:1043880001B40248844601BC604700BFDD0C01004F
:1043980001B40248844601BC604700BFDD13010038
:1043A80001B40248844601BC604700BF891401007B
:1043B80001B40248844601BC604700BF456B010058
:1043C80001B40248844601BC604700BF8B5201001B
:1043D80001B40248844601BC604700BFDD0A010001
:1043E80001B40248844601BC604700BF0D52010079
:1043F80001B40248844601BC604700BF3D4B010040
:1044080001B40248844601BC604700BFBD0B0100EF
:1044180001B40248844601BC604700BFB54C0100A6
:1044280001B40248844601BC604700BFC1150100C1
:1044380001B40248844601BC604700BF01890000FE
:1044480001B40248844601BC604700BF9DA9000032
:1044580001B40248844601BC604700BF6D0E0100EC
:1044680001B40248844601BC604700BF21A900008E
:1044780001B40248844601BC604700BFEDA50000B6
:1044880001B40248844601BC604700BF3D71010089
:1044980001B40248844601BC604700BFE91001002E
:1044A80001B40248844601BC604700BF75A90000FA
:1044B80001B40248844601BC604700BFED4A0100D0
:1044C80001B40248844601BC604700BF2D110100B9
:1044D80001B40248844601BC604700BFC56D0100B5
:1044E80001B40248844601BC604700BFD1A5000062
:1044F80002000300050206020700080009000A007E
:104508000C000D0048414E444C494E4720494E543A
:1045180045525255505400484552450053454E4463
:10452800494E47006D6F64653A20256420213D207F
:1045380025640053656E64696E67207061636B65FE
:104548007400545950453A20253032780047616C40
:10455800617879205461622053340053656E642079
:10456800616761696E000100ED1DFF1F000D000EFF
:10457800001000110013001401070108010A010BC3
:10458800011C011D02040205020702080219021A91
:10459800021C021D030103020317000201000504A7
:1045A800000807000B0A001716001D1C0102010174
:1045B8000504010E0D011110011413011716011A3B
:1045C80019020201020B0A020E0D02111002141345
:1045D800021716030504030807030B0A030E0D0050
:1045E80001020307090A0B0E0F10111214171819EC
:1045F8001A1B1F20212230313233343536373839EF
:104608006162636465666768696A6B6C6D6E6F701A
:104618007172737475767778797A00303132333401
:1046280035363738394142434445464748494A4B6D
:104638004C4D4E4F505152535455565758595A0095
:104648003C4E554C4C3E00000506FFFF00C20100E1
:1046580001000000000000002860FF1F00000000AB
:0846680028D3FF7F01000000D0
:104670000100000000000000000000000000080031
:10468000040000003B0001085902E00188210800F5
:1046900040787D0100000000000000001463FF1F4F
:1046A0007C63FF1FE463FF1F0000000000000000A8
:1046B00000000000000000000000000000000000FA
:1046C00000000000000000000000000000000000EA
:1046D00000000000000000000000000000000000DA
:1046E00000000000000000000000000000000000CA
:1046F00000000000000000000000000000000000BA
:1047000000000000000000000000000000000000A9
:104710000000000000000000000000000000000099
:104720000000000000000000000000000000000089
:104730000000000000000000000000000000000079
:1047400001000000000000000E33CDAB34126DE616
:10475000ECDE05000B00000000000000000000007F
:104760000000000000000000000000000000000049
:104770000000000000000000000000000000000039
:104780000000000000000000000000000000000029
:104790000000000000000000000000000000000019
:104AC000B06CFF1FA541FF1F6D19FF1F4119FF1F8C
:040000051FFF333D69
:00000001FF
